:020000040800F2
:10000000D8120020F11600088506000887060008AF
:100010008B0600088F060008930600080000000009
:10002000000000000000000000000000970600082B
:1000300099060008000000009B0600080917000848
:100040000B1700080B1700080B1700080B17000808
:100050000B1700080B1700080B1700080B170008F8
:100060000B1700080B1700080B1700080B170008E8
:100070000B1700080B1700080B1700080B170008D8
:100080000B1700080B1700080B1700080B170008C8
:100090000B1700080B1700080B1700080B170008B8
:1000A0000B1700080B1700080B1700080B170008A8
:1000B0000B170008731200080B1700080B17000835
:1000C0000B1700080B1700080B1700080B17000888
:1000D0000B170008D3320008111400082F13000872
:1000E0000B1700080B1700080B17000800F002F8A8
:1000F00000F06BF80AA090E8000C82448344AAF157
:100100000107DA4501D100F060F8AFF2090EBAE854
:100110000F0013F0010F18BFFB1A43F0010318473B
:1001200020A1000040A100000A444FF0000C10F88C
:10013000013B13F0070408BF10F8014B1D1108BF65
:1001400010F8015B641E05D010F8016B641E01F805
:10015000016BF9D113F0080F1EBF10F8014BAD1C55
:100160000C1B09D16D1E58BF01F801CBFAD505E073
:1001700014F8016B01F8016B6D1EF9D59142D6D3CD
:10018000704700000023002400250026103A28BFF5
:1001900078C1FBD8520728BF30C148BF0B607047F9
:1001A000642905F07386782905F0AC860020704735
:1001B0001FB506F0F3F804000020002106F024FF2C
:1001C000401C60601FBD10B510BD06F00BF9114654
:1001D000FFF7EEFF00F053F906F029F903B4FFF73B
:1001E000F2FF03BC03F00EF81CB5F7480078C0B36B
:1001F0000020F5490870F54890F84100F44908607E
:10020000F24890F84700F3490860F04890F8480039
:10021000F1490860ED4890F84200F049086001207B
:1002200010210323CDE90010E9480268642000F0A2
:10023000DDFD012010210323CDE90010E548202138
:100240000268642000F0D2FD012010210323CDE9D3
:100250000010E14830210268642000F0C7FD00F082
:10026000D0FB1CBD044603E02146DDA005F0DAFD0D
:10027000FAE7F8B50026DD4890F85000002866D06F
:100280000020DA4981F8500000BF5EE046B9D8A1ED
:10029000D64805F0FFFE041E55D10120FFF7E2FF0E
:1002A000641CD3A1204605F0F5FE051E48D0072E9C
:1002B0002ED2DFE806F02D040B11181F26002A1B92
:1002C0002146CA48523005F016FF22E02A1B21467B
:1002D000684605F010FF1CE02A1B2146C3485D302C
:1002E00005F009FF15E02A1B2146C048683005F0DB
:1002F00002FF0EE02A1B2146BC486A3005F0FBFED7
:1003000007E02A1B2146B948763005F0F4FE00E0EC
:1003100000BF00BF2C460120B44981F851009DF870
:100320000000412803D1012081F8780007E09DF802
:100330000000562803D10020AC4981F8780002E083
:100340000220FFF78FFF701CC6B2062E9EDDF8BD9F
:100350002DE9F04F89B08246002405E01AF8040028
:100360002E2800D104E0641C1AF804000028F5D1FE
:1003700000BFA4F101092AE0A4EB0901481E07F01F
:10038000CEF807463A460B4600209A4906F02AF96D
:10039000CDE900011AF80910A1F1300007F0BFF80B
:1003A0000546DDE9002307F00DF9CDE904015846C3
:1003B00007F0B5F8CDE90201DDE9042306F06CFE93
:1003C000CDE9060107F07CF88346A9F10109B9F1EE
:1003D000000FD1DA584609B0BDE8F08F2DE9F041A1
:1003E00082485D30FFF7B4FF834908607F486A3078
:1003F000FFF7AEFF814908607C485230FFF7A8FF45
:100400007F490860084600687E4908447C490860C6
:100410007948006807F096FD804607F0E3FB064642
:100420000022794B06F0F4FE044606F003FE7749FD
:1004300008607248006807F085FD804607F0D2FB2F
:1004400006460022704B06F0E3FE044606F0F2FD7D
:100450006F4908606A48006807F074FD804607F03D
:10046000C1FB064600226B4B06F0D2FE044606F0A6
:10047000E1FD69490860FFF7FCFEBDE8F0811CB5AD
:1004800002F056FE4FF4806001F052F901F0CAF814
:100490004FF4165002F0CEFE4FF4164000F05CFF11
:1004A00000F036FE40F2E731472000F0B5FE202193
:1004B0005A4805F09FFE4FF4165000F0E9FE04F094
:1004C00015FC4FF4FA7002F070FE012004F025FCD8
:1004D0004FF47A7002F069FE02F049FF8A21504819
:1004E00000F087FF012010234EA200210090084653
:1004F00000F04CFC012010234CA219460090002073
:1005000000F044FC012010234AA22021009000208A
:1005100000F03CFC0120102349A230210090002073
:1005200000F034FC00F06DFA4CE0FFF757FFFFF7E6
:100530005BFE01F094F8044607F004FD43490860AF
:100540000846006807F0DEFC044601201021032362
:100550002246CDE900100021642000F047FC00F0A5
:1005600050FA1D4800685A2803DA1A4800688C2897
:1005700005DB01203649086000203649086015482F
:1005800000685A2805DA0120324908600020304905
:1005900008600F4800683C2805DA01202E490860F1
:1005A00000202E4908600A480068642805DD012003
:1005B0002A49086000202849086002F060FF1748B7
:1005C00004F05BFDB1E70000500400200C0900209E
:1005D0001C04002020040020240400202804002003
:1005E0004552524F5225640D0A0000005809002060
:1005F0002C0000000000244000040020040400201F
:100600000804002080380100000059400C0400203C
:10061000100400200088C34014040020990A002020
:100620000044004054656D7065723A00486561721F
:1006300074733A00537973746F6C69633A00000005
:1006400044696173746F6C653A00000018040020FF
:1006500038040020340400202C0400203004002042
:10066000074890F8510050B10020054981F8510029
:10067000084690F8780010B1002081F878007047A3
:1006800058090020704700BFFEE700BFFEE700BF2B
:10069000FEE700BFFEE77047704770470CB50020CB
:1006A000019000906C48006840F480306A4908600E
:1006B00000BF6948006800F4003000900198401CB9
:1006C0000190009818B90198B0F5A06FF1D1624877
:1006D000006800F4003010B10120009001E000201B
:1006E00000900098012843D15C48006840F0100059
:1006F0005A4908600846006820F003000860084670
:10070000006840F002000860534840685249486061
:100710000846406848600846406840F48060486089
:100720000846406820F47C1048600846406840F461
:10073000E81048600846006840F08070086000BF1C
:100740004548006800F000700028F9D04248406831
:1007500020F00300404948600846406840F002002D
:10076000486000BF3C48406800F00C000828F9D100
:100770000CBD10B5FFF792FF10BD10B536480068EC
:1007800040F0010034490860084640683449084098
:100790003149486008460068324908402E490860DF
:1007A0000846006820F4802008600846406820F46D
:1007B000FE0048604FF41F008860FFF7DAFF4FF03B
:1007C00000602949086010BD10B5002100200022FA
:1007D000214B5B6803F00C0121B1042906D00829E4
:1007E00028D107E0214B224C236027E01F4B204CEF
:1007F000236023E0184B5B6803F47010164B5B68B2
:1008000003F48032022303EB904022B9194B434397
:10081000174C23600DE0104B5B6803F4003323B1E9
:10082000144B4343124C236003E0104B4343104CE2
:10083000236003E00D4B0E4C236000BF00BF064B4E
:100840005B68C3F303130C4CE15C094B1B68CB40A2
:10085000074C236010BD0000001002400020024041
:100860000000FFF8FFFFF6FE08ED00E000127A003E
:100870003C04002000093D0040040020032000BF8C
:10088000011EA0F10102D0B2FAD1704710B52021AB
:10089000F84801F0CAF81021F64801F0C4F8FFF753
:1008A000EDFF2021F34801F0BEF810BD10B5202166
:1008B000F04801F0B8F8FFF7E1FF1021ED4801F032
:1008C000B2F8FFF7DBFF1021EA4801F0AEF8FFF7BE
:1008D000D5FF10BD70B5044600251BE004F0800074
:1008E00020B12021E34801F09EF803E02021E148F7
:1008F00001F09BF8FFF7C2FF1021DE4801F093F8EA
:10090000FFF7BCFF1021DB4801F08FF86006040EF2
:10091000681CC5B2082DE1DB70BD10B52021D5489B
:1009200001F081F81021D34801F07DF8FFF7A6FF10
:100930002021D04801F079F8FFF7A0FF1021CD4821
:1009400001F073F8FFF79AFF10BD70B505460C462D
:10095000FFF7E3FF7820FFF7BDFFFFF7A7FF1CB10C
:100960004020FFF7B7FF02E00020FFF7B3FFFFF7DB
:100970009DFF2846FFF7AEFFFFF798FFFFF786FFC2
:1009800070BD10B504461CB90021A620FFF7DDFF9D
:10099000012C03D10021A720FFF7D7FF10BD10B510
:1009A00004463CB90021C820FFF7CFFF0021A12059
:1009B000FFF7CBFF012C07D10021C020FFF7C5FFB7
:1009C0000021A020FFF7C1FF10BD10B500218D2030
:1009D000FFF7BBFF00211420FFF7B7FF0021AF2076
:1009E000FFF7B3FF10BD10B500218D20FFF7ADFF5D
:1009F00000211020FFF7A9FF0021AE20FFF7A5FF7F
:100A000010BD70B500242BE004F1B001C8B2002184
:100A1000FFF79BFF00210846FFF797FF00211020FA
:100A2000FFF793FFFFF779FF7820FFF753FFFFF7FA
:100A30003DFF4020FFF74EFFFFF738FF002509E09C
:100A40008D4901EBC501085DFFF744FFFFF72EFF5D
:100A5000681CC5B2802DF3DBFFF718FF601CC4B221
:100A6000082CD1DB70BD70B500240CE0002506E039
:100A70000020814901EBC5010855681CC5B2802DD5
:100A8000F6DB601CC4B2082CF0DBFFF7BAFF70BDC8
:100A9000F0B514460B46CF1701EB5777C7F3C702E3
:100AA000CF1701EB5777FF10A1EBC707FEB2012369
:100AB000B340DDB24CB1704B03EBC0039B5C2B43E6
:100AC0006D4F07EBC007BB541AE06B4B03EBC00341
:100AD0009B5CDB43684F07EBC007BB54664B03EBE3
:100AE000C0039B5C2B43644F07EBC007BB54624BB6
:100AF00003EBC0039B5CDB435F4F07EBC007BB54BA
:100B0000F0BD2DE9FF4F84B081468A460020029057
:100B100083460698A0EB09040798A0EB0A06CDF8D7
:100B20000490CDF800A0002C01DD012705E00CB9F0
:100B3000002702E04FF0FF376442002E02DD4FF045
:100B4000010806E016B94FF0000802E04FF0FF3848
:100B50006642B44201DD254600E0354600200390A0
:100B60001EE0009AD1B2019AD0B2119AFFF790FF1D
:100B7000029820440290B3440298A84205DD0298EE
:100B8000401B0290019838440190AB4504DDABEB6B
:100B9000050B0098404400900398401C80B20390DD
:100BA000691C03988842DCDB08B0BDE8F08F2DE9B2
:100BB000F04306460F4690460025444643E03A1B64
:100BC000D1B27219D0B20122FFF762FF3A1BD1B243
:100BD000721BD0B20122FFF75BFF3A19D1B2721B30
:100BE000D0B20122FFF754FF3A19D1B27219D0B234
:100BF0000122FFF74DFF7A19D1B23219D0B201228A
:100C0000FFF746FF7A1BD1B23219D0B20122FFF7AB
:100C10003FFF7A1BD1B2321BD0B20122FFF738FF5F
:100C20007A19D1B2321BD0B20122FFF731FF6D1C0D
:100C300005FB05F004FB040008FB1809B9F1000FDF
:100C400001DD641E6D1E6000604308FB08F18842F0
:100C5000B5DABDE8F0832DE9FE4F07468846924697
:100C60001C460197CDF80080082C07D14FF00609EB
:100C700024E00000000801408C0400202046E31717
:100C800004EB5373DB1021464FEAE47C04EB5C7CFD
:100C90004FEAEC0CA4EBCC0CBCF1000F02D04FF0EF
:100CA000010C01E04FF0000C6344224604EBD27CBF
:100CB0004FEA6C0C03FB0CF303F0FF09AAF12000D0
:100CC000C6B200255EE0082C07D106EB4600FE49BF
:100CD00001EB400010F805B01DE00C2C07D106EB2D
:100CE0004600FA4901EB800010F805B013E0102C23
:100CF00005D1F74800EB061010F805B00BE0182CF2
:100D000007D106EBC600F34901EB800010F805B0EF
:100D100001E0BDE8FE8F002002901CE00BF0010016
:100D200028B1414638460C9AFFF7B2FE09E00C980C
:100D300008B9012000E00020024641463846FFF78E
:100D4000A7FE4FEA6B0B08F1010000F0FF080298C4
:100D5000401CC0B2029002980828DFDB781CC7B2A2
:100D6000082C0BD004EBD4714A100199791A8A42ED
:100D700004D1019F00980830C0B20090DDF80080D7
:100D8000681CC5B24D459EDB00BFC2E72DE9F841A6
:100D900006460F4614461D46DDF81C8013E0CDF8CC
:100DA000008022782B4639463046FFF754FF082D45
:100DB00002D1B01DC6B205E0284605EBD07106EBA6
:100DC0006101CEB2641C2078202802DB20787E28C6
:100DD000E5DDBDE8F88110B50246012000E0504392
:100DE0000B1EA1F10104E1B2F9D110BD2DE9FF4FB5
:100DF00082B0064691461F46DDE90F4A4FF0000BD0
:100E0000082C01D14FF0020B002530E0781B401E6A
:100E1000C1B20A20FFF7DFFFB9FBF0F00A21B0FBF7
:100E2000F1F201FB1208B8F1000F0ED104EBD471FE
:100E30000BEB610101FB0561C8B223463022CDE90D
:100E400000A40399FFF707FF0FE004EBD4710BEB4D
:100E5000610101FB0561C8B208F13001CAB2234645
:100E6000CDE900A40399FFF7F6FE681CC5B2BD42A8
:100E7000CCDB06B0BDE8F08F2DE9FC4F0746884675
:100E800016461C46BB46CDF804802046E21704EB0C
:100E90005272D2102146E31704EB5373DB10A4EB1C
:100EA000C3030BB1012300E000231A44624392B252
:100EB0000092002555E0102C05D1874800EB461024
:100EC00010F805A01BE0182C07D106EBC6008349DB
:100ED00001EBC00010F805A011E0202C05D18048DE
:100EE00000EBC61010F805A009E0402C05D17D48A4
:100EF00000EB462010F805A001E0BDE8FC8F4FF0A4
:100F000000091CE00AF0010028B1414638460B9A5E
:100F1000FFF7BEFD09E00B9808B9012000E00020B2
:100F2000024641463846FFF7B3FD4FEA6A0A08F128
:100F3000010000F0FF0809F1010000F0FF09B9F11C
:100F4000080FDFDB781CC7B2A7EB0B00A04204D16F
:100F50005F4601980830C0B20190DDF80480681C3B
:100F600085B200988542A6DB00BFC6E708B580467B
:100F700089469246002600274BE04FB9102332469F
:100F800018218020CDF800A0FFF776FF701CC6B2B4
:100F9000464522D14FF0000B1AE0012410E0002555
:100FA0000AE0514800EBC400415D601E4E4A02EB6E
:100FB000C0004155681CC5B2082DF2DB601CC4B2EC
:100FC000902CECDBFFF71DFD0BF1010000F0FF0B97
:100FD0004FEA09105845E0DC0026781CC7B2102FF4
:100FE00000D10027012410E000250AE03E4800EB74
:100FF000C400415D601E3C4A02EBC0004155681CC4
:10100000C5B2082DF2DB601CC4B2902CECDBFFF7FC
:10101000F8FCB2E72DE9FF4F05460E4617461C4681
:10102000DDF838904FF0000A0095B3462046E217ED
:1010300004EB5272D2102146E31704EB5373DB101A
:10104000A4EBC3030BB1012300E000231A44D4B284
:101050004FF0000858E0002003904EE00D9810F883
:101060000A0002900AF101001FFA80FA00200190A4
:101070001DE0029800F0010028B14A46314628469A
:10108000FFF706FD0AE0B9F1000F01D1012000E0F1
:101090000020024631462846FFF7FAFC029840102D
:1010A0000290701CC6B20198401CC0B20190019819
:1010B0000828DEDB681CC5B20098281AB84217D190
:1010C000009D0BF1080011E00E8300083685000832
:1010D000AA8900089A8F0008F69C0008769E0008EE
:1010E000BE9E00083E9F00088C04002000F0FF0B0D
:1010F0005E460398401CC0B203900398B842ADDB33
:1011000008F1010000F0FF08A045A4DBBDE8FF8F57
:1011100008B50121042000F095FE3020ADF8000054
:1011200014208DF8030003208DF802006946394829
:1011300000F0CCFB3021374800F075FC0021AE20D8
:10114000FFF703FC00210846FFF7FFFB00211020FA
:10115000FFF7FBFB00214020FFF7F7FB0021812078
:10116000FFF7F3FB0021CF20FFF7EFFB0021A120C9
:10117000FFF7EBFB0021C820FFF7E7FB0021A620CB
:10118000FFF7E3FB0021A820FFF7DFFB00213F2052
:10119000FFF7DBFB0021D320FFF7D7FB0021084638
:1011A000FFF7D3FB0021D520FFF7CFFB00218020E4
:1011B000FFF7CBFB0021D920FFF7C7FB0021F1206F
:1011C000FFF7C3FB0021DA20FFF7BFFB002112204D
:1011D000FFF7BBFB0021DB20FFF7B7FB002130202E
:1011E000FFF7B3FB00212020FFF7AFFB0021022017
:1011F000FFF7ABFB00218D20FFF7A7FB0021142098
:10120000FFF7A3FBFFF72FFC0021AF20FFF79DFBAB
:1012100008BD0000000801407FB505460C460121CD
:10122000022000F01CFEADF80850ADF8044000208C
:10123000ADF80A00ADF8060001A9144801F03EF926
:1012400001221146114801F0B0FC1D208DF800006C
:1012500000208DF8010003208DF8020001208DF898
:101260000300684600F069FA0121084801F082FC99
:101270007FBD10B50121054801F045FF28B10121CE
:10128000024801F051FF02F036F910BD00040040A1
:1012900010B586B004460121082000F0D3FD0121DD
:1012A000880400F0DCFD4FF48060ADF814000320EA
:1012B0008DF8160018208DF8170005A9244800F0B5
:1012C00005FB4FF40060ADF8140004208DF8170002
:1012D00005A91F4800F0FAFA27208DF80000032026
:1012E0008DF801008DF8020001208DF8030068469A
:1012F00000F023FA01940020ADF80800ADF80A00D0
:10130000ADF80C00ADF810000C20ADF80E0001A9EE
:10131000104800F03EFE012240F225510D4800F039
:10132000D0FE01210B4800F0C0FE06B010BD08B58C
:1013300040F22551074800F0A9FF40B1054800F0F0
:1013400025FFC0B200900121684602F087F908BD70
:10135000000C01400048004010B586B00446012151
:10136000042000F06FFD0121480400F078FD042006
:10137000ADF8140003208DF8160018208DF8170022
:1013800005A93A4800F0A2FA0820ADF8140004209C
:101390008DF8170005A9354800F098FA26208DF839
:1013A000000003208DF801008DF8020001208DF867
:1013B0000300684600F0C1F901940020ADF8080070
:1013C000ADF80A00ADF80C00ADF810000C20ADF837
:1013D0000E0001A9264800F0DCFD012240F2255153
:1013E000234800F06EFE0121214800F05EFE06B0A9
:1013F00010BD70B504460D462946204600F0C2FED9
:1014000000BF8021204600F02BFF0028F9D070BDDE
:1014100010B540F22551164800F038FF28B340F2CD
:101420002551134800F05CFF114800F0AFFEC4B234
:10143000FF2C02D101200F4908700E48007840B1FE
:101440000D480E49097844540C480078401C0B495B
:1014500008700A4800784B2807DD0020074908700B
:101460000449087001200649087010BD00080140B9
:1014700000440040520400200C09002051040020C8
:101480005004002008B54FF48070ADF80000102023
:101490008DF8030003208DF802006946924800F0A1
:1014A00015FA08BD08B54FF48070ADF800000120B2
:1014B0008DF8020004208DF8030069468A4800F088
:1014C00005FA08BD10B5FFF7DDFF4FF480718648BF
:1014D00000F0ABFA40F2EE2001F043FE4FF48071D1
:1014E000814800F0A0FA0F2001F03BFE10BD10B5BE
:1014F0000024FFF7D7FF04E0601CC4B2012001F014
:1015000030FE4FF48071784800F073FA08B1C82CAF
:10151000F2DBC82C01DB012010BD002404E0601CBC
:10152000C4B2012001F01DFE4FF480716E4800F03E
:1015300060FA08B9F02CF2DBF02C01DB0120EBE7BC
:101540000020E9E710B5FFF79DFF4FF48071664872
:1015500000F06BFA022001F004FE4FF48071624843
:1015600000F061FAFFF79EFF0C2001F0FAFD4FF446
:1015700080715D4800F03DFA08B1012400E00024CC
:10158000322001F0EEFD204610BD70B50026012589
:1015900008E0FFF7D7FF0446E00140EA6600C6B264
:1015A000681CC5B2082DF4DD304670BD70B5044628
:1015B000FFF768FF012526E004F00106641086B1FC
:1015C0004FF48071484800F030FA022001F0C9FD64
:1015D0004FF48071444800F026FA3C2001F0C1FD30
:1015E0000FE04FF48071404800F01FFA3C2001F0FA
:1015F000B8FD4FF480713C4800F015FA022001F06C
:10160000B0FD681CC5B2082DD6DD70BD10B5FFF762
:1016100059FFFFF76CFFCC20FFF7C8FF4420FFF70E
:10162000C5FF10BD08B50121082000F00BFC4FF4E8
:101630008070ADF8000010208DF8030003208DF8B5
:1016400002006946284800F041F94FF480712648AD
:1016500000F0E9F9FFF736FFFFF749FF08BD2DE974
:10166000F84FFFF7D3FFFFF72DFFFFF740FFCC2028
:10167000FFF79CFFBE20FFF799FFFFF786FF834629
:10168000FFF783FF0446072C08DDE043C4B26FEA8E
:101690000B0000F0FF0B4FF0000A01E04FF0010AD1
:1016A000A1464FEA09200FFA80F909EB0B000FFA67
:1016B00080F9484606F046FC009006F093FA07468B
:1016C00000220A4B05F07EFF054605F0F9FE0FFAF1
:1016D00080F9BAF1000F02D04846BDE8F88FC9F191
:1016E000000000B2F9E70000000C01400000B03F2C
:1016F0000948804709480047FEE7FEE7FEE7FEE7A6
:10170000FEE7FEE7FEE7FEE7FEE7FEE704480549E1
:10171000054A064B704700007B070008ED000008F3
:10172000D80C0020D8120020D80E0020D80E00209F
:1017300031490143314A1160704770B500210023DF
:101740000F22C47804B32D4C246804F4E064C4F57B
:10175000E064210AC1F10403CA40447804FA03F1A9
:101760008478144021430901254C0678A15504785A
:1017700004F01F050124AC4005786D11AD0005F1A2
:10178000E025C5F8004109E0047804F01F050124B4
:10179000AC401C4D0678761145F8264070BD1A4ABB
:1017A0000A400243154B1B1F1A60704739B1134A98
:1017B000121D12680243114B1B1D1A6006E00F4AEE
:1017C000121D126882430D4B1B1D1A6070470428BE
:1017D00008D14FF0E021096941F004014FF0E02207
:1017E000116107E04FF0E021096921F004014FF099
:1017F000E0221161704700000000FA050CED00E0E6
:1018000000E400E080E100E080FFFF1F10B5044627
:10181000CC48844208D10121042000F02DFB002196
:10182000042000F029FB46E0C748844208D101218A
:10183000082000F021FB0021082000F01DFB3AE009
:10184000C248844208D10121102000F015FB00217C
:10185000102000F011FB2EE0BD48844208D1012188
:10186000202000F009FB0021202000F005FB22E0F1
:10187000B848844208D10121402000F0FDFA00213F
:10188000402000F0F9FA16E0B348844208D1012163
:10189000802000F0F1FA0021802000F0EDFA0AE04B
:1018A000AE48844207D10121801500F0E5FA0021FD
:1018B000A01500F0E1FA10BD10B50121084600F0B6
:1018C000DBFA0021012000F0D7FA10BD2DE9F0412C
:1018D000024600250026002000230024002791F85E
:1018E00003C00CF00F0591F803C00CF0100CBCF114
:1018F000000F03D091F802C04CEA050591F800C032
:10190000BCF1000F31D0146800202BE04FF0010C27
:101910000CFA00F3B1F800C00CEA03069E4220D195
:1019200083004FF00F0C0CFA03F7BC4305FA03FCDD
:101930004CEA040491F803C0BCF1280F06D14FF023
:10194000010C0CFA00FCC2F814C00AE091F803C0C4
:10195000BCF1480F05D14FF0010C0CFA00FCC2F8A5
:1019600010C0401C0828D1D31460B1F800C0BCF1ED
:10197000FF0F34DD546800202EE000F1080C4FF01A
:10198000010808FA0CF3B1F800C00CEA03069E4205
:1019900021D183004FF00F0C0CFA03F7BC4305FA7A
:1019A00003FC4CEA040491F803C0BCF1280F05D1F4
:1019B00000F1080C08FA0CF8C2F8148091F803C082
:1019C000BCF1480F07D100F1080C4FF0010808FAEC
:1019D0000CF8C2F81080401C0828CED35460BDE833
:1019E000F0814FF6FF710180022181700421C170E6
:1019F00070470246002093680B400BB1012000E0C5
:101A0000002070470146886880B270470246002077
:101A1000D3680B400BB1012000E000207047014665
:101A2000C86880B2704701617047416170470AB170
:101A3000016100E041617047C16070474FF480323E
:101A40000A438261816182618269826970470246CC
:101A50000020434B18684FF68073184040EA02108C
:101A600008433F4B186070473E49C8617047F0B566
:101A70000A46002300240021002500F00046B6F1AC
:101A8000004F02D1364EF16901E0354E7168C0F366
:101A9000034583B200F44016B6F5401F08D121F08B
:101AA00070612F4E766826F070662D4F7E6012E0D2
:101AB00000F48016B6F5801F06D1032606FA05F459
:101AC000A14341F0706106E0460D360103FA06F6C7
:101AD000B14341F0706122B1460D360103FA06F6BA
:101AE000314300F00046B6F1004F02D11C4EF161C7
:101AF00001E01B4E7160F0BD30B500228B071C0F5A
:101B00000F2303FA04F2164B08338C1053F82430D9
:101B10009343134C08348D1044F8253023468C1021
:101B200053F824308C07240F00FA04F423430C4CA0
:101B300008348D1044F8253030BD0A49DC31086086
:101B40007047000000080140000C014000100140F7
:101B50000014014000180140001C01400020014019
:101B60000000014000002042DF48006840F0010012
:101B7000DD49086008464068DC490840DA494860A9
:101B800008460068DA490840D749086008460068F6
:101B900020F4802008600846406820F4FE00486079
:101BA0004FF41F0088607047CF49096821F48031E5
:101BB000CD4A11601146096821F480211160B0F509
:101BC000803F03D0B0F5802F0ED106E0C6490968EA
:101BD00041F48031C44A116007E0C349096841F407
:101BE000A021C14A116000E000BF00BF704710B5DE
:101BF00001460022002300204A11012A02D1BA4CDA
:101C0000236806E0022A02D1B74C236A01E0B64CF1
:101C1000636A01F01F02012494401C400CB10120B2
:101C200000E0002010BD38B5002000900024002501
:101C300000BF3120FFF7DBFF05460098401C0090F5
:101C40000098B0F5A06F01D0002DF2D03120FFF741
:101C5000CEFF08B1012400E00024204638BD014633
:101C60000020A14A106820F0F80040EAC10010608E
:101C70007047A04908607047024600209A4B586898
:101C800020F47C1042EA01031843974B58607047D8
:101C900098490866704701460020934A506820F032
:101CA00003000843506070478F48406800F00C0004
:101CB0007047014600208C4A506820F0F00008432D
:101CC0005060704701460020874A506820F4E06069
:101CD00008435060704701460020834A506820F452
:101CE000605040EAC1005060704729B17E4A527A84
:101CF00002437D4B5A7204E07B4A527A82437A4B0C
:101D00005A7270477B49D8310860704701460020FD
:101D1000754A506820F440400843506070470021E5
:101D2000714A20321170704A82F82010012802D0C6
:101D300004280AD104E001216B4A2032117005E029
:101D40000521694A2032117000E000BF00BF7047D2
:101D50006949086070476449096A0143624A11622F
:101D60007047654944390860704730B5002100224A
:101D7000002400235C4D6D6805F00C0121B104299D
:101D800005D0082923D105E05C4D056022E05B4DBC
:101D900005601FE0544D6D6805F47012524D6D687A
:101DA00005F48034022505EB92421CB9544D55438D
:101DB00005600BE04C4D6D6805F400351DB1504DCC
:101DC0005543056002E04D4D5543056002E04B4D23
:101DD000056000BF00BF444D6D6805F0F0010909C2
:101DE000484D6B5C0568DD4045603F4D6D6805F40E
:101DF000E061090A434D6B5C4568DD4085603A4D02
:101E00006D6805F46051C90A3E4D6B5C4568DD4064
:101E1000C560354D6D6805F44041890B3A4D6B5CEA
:101E2000C568B5FBF3F5056130BD29B12E4A52698D
:101E300002432D4B5A6104E02B4A526982432A4BDC
:101E40005A61704729B1284A92690243264B9A6128
:101E500004E0254A92698243234B9A61704729B175
:101E6000214AD2690243204BDA6104E01E4AD2695A
:101E700082431D4BDA61704729B11B4AD268024385
:101E8000194BDA6004E0184AD2688243164BDA60D4
:101E9000704729B1144A12690243134B1A6104E0D6
:101EA000114A12698243104B1A6170471249403936
:101EB000086070470F49C86470470B49C871704784
:101EC0000948406A40F080700749486270470146FF
:101ED0000020054A92680A400AB1012000E0002073
:101EE0007047014988727047001002400000FFF8F7
:101EF000FFFFF6FE000042428004424200127A00D8
:101F000000093D00530400206304002010B504467E
:101F1000FB48844209D101218803FFF7ADFF00216E
:101F20004FF48040FFF7A8FF32E0F648844209D121
:101F300001214804FFF7ADFF00214FF40030FFF707
:101F4000A8FF25E0F048844209D101218804FFF769
:101F5000A0FF00214FF48020FFF79BFF18E0EB4823
:101F6000844209D10121C804FFF793FF00214FF4F7
:101F70000020FFF78EFF0BE0E548844208D10121E5
:101F80000805FFF786FF00214FF48010FFF781FF5F
:101F900010BD2DE9F04786B005460E460024A24646
:101FA00000BFA1460027B08900B100BF2F462C8A90
:101FB0004CF6FF700440F08804432C82AC894EF646
:101FC000F3100440B0883189084371890843044301
:101FD000AC81AC8A4FF6FF400440B0890443AC8228
:101FE00001A8FFF7C2FEC648874202D1DDF810A063
:101FF00001E0DDF80CA0A88900F4004040B10AEB34
:10200000CA0000EB0A1031684900B0FBF1F807E0A4
:102010000AEBCA0000EB0A1031688900B0FBF1F846
:102020006420B8FBF0F004012009642101FB108951
:10203000A88900F4004040B1322000EBC900B0FB99
:10204000F1F000F00700044308E0322000EB091033
:102050006421B0FBF1F000F00F0004432C8106B0C6
:10206000BDE8F0874FF41651016000218180C180E6
:1020700001810C21418100218181704710B5024608
:102080000020108A4FF2FF0318400B884C8823432E
:102090008C882343CC8823431843108210BD002131
:1020A000018041808180C180704721B1828942F4E2
:1020B0000052828104E082894DF6FF731A408281CA
:1020C0007047F0B50346002400260025002040F6A6
:1020D0006A17B94200D100BF1846C1F3421401F09B
:1020E0001F06012707FA06F5012C01D10C3004E088
:1020F000022C01D1103000E014301AB107682F43D0
:10210000076002E00768AF430760F0BD1AB1838A39
:102110000B43838202E0838A8B4383827047028A67
:102120004FF6F0731A400282028A0A430282704715
:1021300082894FF2FF731A40828182890A43828129
:10214000704721B1828942F00202828104E08289D3
:102150004FF6FD731A4082817047028A4FF6DF7393
:102160001A400282028A0A430282704721B1028A1F
:1021700042F48042028204E0028A4BF6FF731A4066
:1021800002827047C1F30802828070470146888846
:10219000C0F308007047818941F0010181817047D7
:1021A000028BD2B20283028B42EA01220283704781
:1021B000028B02F47F420283028B0A430283704740
:1021C00021B1828A42F02002828204E0828A4FF6A4
:1021D000DF731A408282704721B1828A42F0100276
:1021E000828204E0828A4FF6EF731A40828270473F
:1021F00021B1828A42F00802828204E0828A4FF68C
:10220000F7731A408282704721B1828942F40042FA
:10221000828103E08289C2F30E028281704721B17C
:10222000828A42F40062828204E0828A4FF2FF7363
:102230001A4082827047828A4FF6FB731A4082826C
:10224000828A0A438282704721B1828A42F0020266
:10225000828204E0828A4FF6FD731A4082827047C0
:1022600002460020B1F5007F00D100BF13880B406B
:102270000BB1012000E00020704701F40072B2F5BC
:10228000007F00D100BFCA430280704770B502468C
:10229000002400230025002040F66A16B14200D138
:1022A00000BFC1F3421501F01F03012606FA03F334
:1022B000012D02D19689334006E0022D02D1168A03
:1022C000334001E0968A33400C12012606FA04F4EA
:1022D0001688344013B10CB1012000E0002070BD1D
:1022E00010B50022002340F66A14A14200D100BFBD
:1022F0000A1201249440A3B2DC43048010BD000004
:10230000003801400044004000480040004C0040BC
:102310000050004010B50446FE48844208D1012117
:10232000C014FFF7A9FD0021E014FFF7A5FDC4E0EC
:10233000B4F1804F08D101210846FFF7AAFD002122
:102340000120FFF7A6FDB8E0F348844208D101213F
:102350000220FFF79EFD00210220FFF79AFDACE06E
:10236000EE48844208D101210420FFF792FD0021AC
:102370000420FFF78EFDA0E0E948844208D1012146
:102380000820FFF786FD00210820FFF782FD94E07A
:10239000E448844208D101211020FFF77AFD002192
:1023A0001020FFF776FD88E0DF48844208D1012144
:1023B0002020FFF76EFD00212020FFF76AFD7CE062
:1023C000DA48844208D101214014FFF755FD00216D
:1023D0006014FFF751FD70E0D548844209D1012116
:1023E000C804FFF749FD00214FF40020FFF744FD2A
:1023F00063E0D048844209D101210805FFF73CFD84
:1024000000214FF48010FFF737FD56E0CA488442A0
:1024100009D101214805FFF72FFD00214FF40010DD
:10242000FFF72AFD49E0C548844208D10121402038
:10243000FFF72FFD00214020FFF72BFD3DE0C048B6
:10244000844208D101218020FFF723FD0021802054
:10245000FFF71FFD31E0BB48844208D10121801500
:10246000FFF717FD0021A015FFF713FD25E0B64883
:10247000844209D101210804FFF7FEFC00214FF43A
:102480008030FFF7F9FC18E0B048844209D10121FF
:102490004804FFF7F1FC00214FF40030FFF7ECFC9B
:1024A0000BE0AB48844208D101218804FFF7E4FC2B
:1024B00000214FF48020FFF7DFFC10BD00220288CE
:1024C000944B98420ED0994B98420BD0B0F1804F6C
:1024D00008D0914B984205D0904B984202D0904B37
:1024E000984204D14FF68F731A404B881A438D4B94
:1024F000984207D08C4B984204D04FF6FF431A40C5
:10250000CB881A4302808B8883850B880385814B97
:1025100098420BD0854B984208D08B4B984205D0FF
:102520008A4B984202D08A4B984201D10B7A03869B
:1025300001238382704770B5002400220023058C9C
:102540004FF6FE7635400584028C8388048B4FF667
:102550008F752C40B51E2C400D882C43751E2A40CB
:102560000D892A434D882A436A4DA8420BD06F4DEE
:10257000A84208D0744DA84205D0744DA84202D09C
:10258000734DA84213D14FF6F7752A404D892A435F
:102590004FF6FB752A408D882A434FF6FF652B4086
:1025A0004FF6FF552B408D892B43CD892B438380DC
:1025B0000483CD888586028470BD70B50024002216
:1025C0000023058C4FF6EF7635400584028C838816
:1025D000048B48F6FF752C404FF6FF452C400D88C4
:1025E0004FF6FF7606EA05252C434FF6DF752A40A5
:1025F0000D8906EA05152A434D8806EA05152A4382
:10260000444DA84202D0494DA8421DD14FF67F75D6
:102610002A404D894FF6FF7606EA05152A434FF604
:10262000BF752A408D8806EA05152A434FF6FF3507
:102630002B404FF2FF752B408D8906EA85052B4311
:10264000CD8906EA85052B4383800483CD880587E1
:10265000028470BD70B5002400220023058C4FF663
:10266000FF6635400584028C8388848B4FF68F7516
:102670002C404FF6FC752C400D882C434FF6FF552F
:102680002A400D894FF6FF7606EA05252A434D8834
:1026900006EA05252A431F4DA84202D0234DA84231
:1026A0001DD14FF2FF752A404D894FF6FF7606EA9D
:1026B00005252A434FF6FF352A408D8806EA052571
:1026C0002A434EF6FF752B404DF6FF752B408D8942
:1026D00006EA05152B43CD8906EA05152B438380B1
:1026E0008483CD888587028470BD70B50022002365
:1026F0000024058C4EF6FF7635400584038C8488D3
:10270000828B48F6FF752A404FF6FF452A400D8818
:1027100020E00000002C01400004004000080040C0
:10272000000C004000100040001400400034014044
:10273000004C01400050014000540140001800408E
:10274000001C0040002000400040014000440140C7
:10275000004801404FF6FF7606EA05252A434DF66C
:10276000FF752B400D8906EA05352B434D8806EA97
:1027700005352B43FA4DA84202D0FA4DA84208D1A4
:102780004BF6FF752C408D894FF6FF7606EA8515CE
:102790002C4384808283CD88A0F84050038470BD90
:1027A000828B4FF2FF331A408283828B4FF6FF7386
:1027B00003EA01231A4382837047F0B50C4615469D
:1027C000002200210026078C4EF6FF7C07EA0C074A
:1027D0000784828B018C4FF6FF7707EA043640F6B8
:1027E000FF473A404FF6FF7707EA05273A434FF68F
:1027F000FF7707EA03373A43D94FB8420ED0D94F93
:10280000B8420BD0B0F1804F08D0D74FB84205D0B6
:10281000D64FB84202D0D64FB84206D14DF6FF7718
:10282000394046F48057394305E047F6FF573940B1
:1028300044F48057394382830184F0BD828B4FF684
:10284000F3731A408283828B0A4382837047F0B508
:102850000C461546002200210026078C4FF6FF6C1F
:1028600007EA0C070784828B018C4FF6FF7707EA93
:1028700004264FF60C773A404FF6FF7707EA031726
:102880002F433A43B64FB8420ED0B64FB8420BD0A2
:10289000B0F1804F08D0B44FB84205D0B34FB84222
:1028A00002D0B34FB84206D14FF6FF57394046F435
:1028B0008077394305E04FF2FF57394044F4807781
:1028C000394382830184F0BD028B4FF2FF331A40FB
:1028D0000283028B4FF6FF7303EA01231A4302833C
:1028E0007047F0B50C461546002200210026078CE3
:1028F0004FF6EF7C07EA0C070784028B018C4FF63A
:10290000FF7707EA041640F6FF473A404FF6FF7795
:1029100007EA03373A434FF6FF7707EA05273A43BA
:102920008F4FB8420ED08F4FB8420BD0B0F1804FCE
:1029300008D08D4FB84205D08C4FB84202D08C4F92
:10294000B84206D14FF6DF77394046F010073943D9
:1029500005E04FF65F77394044F0100739430283B2
:102960000184F0BD028B4FF6F3731A400283028B91
:102970000A4302837047F0B50C4615460022002139
:10298000068C4FF6FE773E400684028B018C4FF694
:102990000C7632407E1C06EA03162E433243704EFC
:1029A000B0420ED06F4EB0420BD0B0F1804F08D085
:1029B0006D4EB04205D06D4EB04202D06C4EB0426A
:1029C00006D14FF6FD76314044F00106314305E073
:1029D0004FF6F576314044F001063143028301841D
:1029E000F0BD70B505460C465D4885420ED05D4889
:1029F00085420BD0B5F1804F08D05B48854205D0A9
:102A00005A48854202D05A48854200D100E000BFB2
:102A1000208850B92389A28861882846FFF7ABFF38
:102A2000E1882846FFF79EFF25E0208804280AD188
:102A30002389A28861882846FFF753FFE18828464A
:102A4000FFF742FF17E0208808280AD12389A288CF
:102A500061882846FFF7FBFEE1882846FFF7EEFE77
:102A600009E02389A28861882846FFF7A6FEE1884D
:102A70002846FFF795FE70BD2DE9F04105460C464E
:102A800000260127608808B9022600E00026A088F9
:102A9000012801D1022700E001272088A0B923895D
:102AA000A28861882846FFF766FFE1882846FFF77D
:102AB00059FF23893A4631462846FFF712FFE1883D
:102AC0002846FFF701FF13E02389A2886188284682
:102AD000FFF707FFE1882846FFF7F6FE23893A460D
:102AE00031462846FFF747FFE1882846FFF73AFFBF
:102AF000BDE8F0810A884B881A438B881A43CB883B
:102B00001A430B891A434B891A438B891A43A0F83D
:102B1000442070474FF6FF71818000210180C18001
:102B20004180017270470021018041808180C18015
:102B3000018141818181C1817047002101804180F3
:102B4000012181800021C180018170470021018025
:102B500041808180C1800181418181817047000075
:102B6000002C0140003401400004004000080040F7
:102B7000000C004021B1028842F00102028004E012
:102B800002884FF6FE731A400280704731B1B0F8E8
:102B9000442042F40042A0F8442005E0B0F844206C
:102BA000C2F30E02A0F8442070471AB183890B4388
:102BB000838102E083898B438381704781827047E0
:102BC00041EA0203A0F8483070471AB183890B43E9
:102BD000838102E083898B438381704701894FF6AB
:102BE000F8721140018170470A46002101894FF6B1
:102BF0008F73194011430181704730B504460D466B
:102C000029462046FFF7F0FF208940F00700208189
:102C100030BD2DE9F04104460D4616461F46602D95
:102C200006D13B46012231462046FFF75AFE05E019
:102C30003B46012231462046FFF79DFE29462046AD
:102C4000FFF7D2FF208940F007002081BDE8F08126
:102C500030B50C4600210189C9B24FF6FF7505EA6F
:102C60000325154325432943018130BD2DE9F0415A
:102C700005460E4617469846002443463A463146D6
:102C80002846FFF7E5FF2C894FF6F870044044F022
:102C900007044FF68F70044044F070042C81BDE8A7
:102CA000F081F0B504460D4616461F463B463246B7
:102CB00029462046FFF7CCFF208940F48040208140
:102CC000F0BD0185828270470A46002101884FF6D7
:102CD0008F731940114301807047F0B50C461546BB
:102CE0001E460021002200230189028B038C4FF62F
:102CF000F877394021434FF6FC473A4040F201173C
:102D00003A434FF6DD773B404FF6FF7707EA061769
:102D10002F433B43018102830384F0BD0A46002117
:102D2000018B4FF68F7319401143018370470A4698
:102D30000021018B48F6FF7319404FF6FF7303EA39
:102D400002231943018370470A460021818B4FF605
:102D50008F7319401143818370470A460021818B8C
:102D600048F6FF7319404FF6FF7303EA0223194335
:102D70008183704721B1028842F08002028004E022
:102D800002884FF67F731A400280704721B1828813
:102D900042F00402828004E082884FF6FB731A40FE
:102DA0008280704721B1828842F00802828004E06C
:102DB00082884FF6F7731A408280704721B182886B
:102DC00042F00102828004E082884FF6FE731A40CE
:102DD000828070470A460021018B4FF6F773194035
:102DE0001143018370470A460021018B4FF2FF73A4
:102DF00019404FF6FF7303EA02231943018370471A
:102E00000A460021818B4FF6F773194011438183E5
:102E100070470A460021818B4FF2FF7319404FF62D
:102E2000FF7303EA02231943818370470A46002196
:102E3000018B4FF6FB7319401143018370470A461B
:102E40000021018B4FF6FF3319404FF6FF7303EA61
:102E500002231943018370470A460021818B4FF6F4
:102E6000FB7319401143818370470A460021818B0F
:102E70004FF6FF3319404FF6FF7303EA022319435D
:102E8000818370470A460021018B4FF67F731940FA
:102E90001143018370470A460021018BC1F30E01E3
:102EA0004FF6FF7303EA02231943018370470A4672
:102EB0000021818B4FF67F73194011438183704746
:102EC0000A460021818BC1F30E014FF6FF7303EA1E
:102ED00002231943818370470A460021018C4FF673
:102EE000FD7319401143018470470A460021018C8B
:102EF0004FF6F77319401143018470470A460021C9
:102F0000018C4FF6DF7319404FF6FF7303EA02138B
:102F10001943018470470A460021018C4FF67F73E4
:102F200019404FF6FF7303EA0213194301847047F7
:102F30000A460021018C4FF6FF5319404FF6FF73EC
:102F400003EA02231943018470470A460021018CD9
:102F50004FF2FF7319404FF6FF7303EA0223194340
:102F6000018470470A460021018C4DF6FF73194019
:102F70004FF6FF7303EA023319430184704730B5FB
:102F8000002301248C40A3B2048C9C430484048C51
:102F900002FA01F5ADB22C43048430BD30B50023F4
:102FA00004248C40A3B2048C9C430484048C02FA55
:102FB00001F5ADB22C43048430BD70B5034600204A
:102FC00000241846183001258D40ACB21D8CA54355
:102FD0001D8409B1082909D100EB6100056825F0BD
:102FE000700505600568154305600EE00D1FC5F30B
:102FF0004E052844056825F4E045056005684FF650
:10300000FF7606EA02263543056070BD21B10288CD
:1030100042F00202028004E002884FF6FD731A407B
:103020000280704721B1028842F00402028004E06D
:1030300002884FF6FB731A400280704721B18288E4
:1030400042F08002828004E082884FF67F731A404B
:103050008280704702884FF6F7731A400280028818
:103060000A430280704782884FF68F731A4082802D
:1030700082880A438280704702894FF6F8731A40AB
:10308000028102890A430281704702894FF67F73E9
:103090001A40028102890A43028170478184704785
:1030A00081857047818670470187704781877047A7
:1030B000A0F84010704702884FF6FF431A40028084
:1030C00002880A43028070470146888E7047014695
:1030D000088F70470146888F70470146B1F840005D
:1030E00070470146888C70470146088D704702463C
:1030F0000020138A0B400BB1012000E00020704734
:10310000CA430282704730B50246002000230024E3
:10311000158A05EA0103958905EA010413B10CB18A
:10312000012000E0002030BDCA4302827047000049
:1031300010B56FF00400FEF74AFB2E4800682E49D8
:10314000B0FBF1F02D4908700846007800EB400113
:10315000C1EBC0104FF6FF7101EAC000284908809A
:1031600010BD0146254A12784A434FF0E0235A61C8
:1031700000229A611A46126942F001021A6100BFE8
:103180004FF0E022106900F001021AB100F4803221
:10319000002AF5D04FF0E022126922F001024FF030
:1031A000E0231A6100229A6170470146144A12888E
:1031B0004A434FF0E0235A6100229A611A4612698D
:1031C00042F001021A6100BF4FF0E022106900F0E6
:1031D00001021AB100F48032002AF5D04FF0E0224B
:1031E000126922F001024FF0E0231A6100229A6175
:1031F000704700003C04002000127A0068040020A0
:103200006A040020014600BF704700BF6A4A128866
:1032100002F04002002AF9D0C2B2674B1B1D1A808F
:10322000704710B5C821654802F0E4FF00206449EA
:10323000088010BD10B586B00446012144F2040098
:10324000FEF700FE4FF40070ADF8140003208DF877
:10325000160018208DF8170005A95A48FEF736FB0E
:103260004FF48060ADF8140004208DF8170005A914
:103270005448FEF72BFB25208DF8000003208DF825
:10328000010002208DF8020001208DF8030068463D
:10329000FEF753FA01940020ADF80800ADF80A00DB
:1032A000ADF80C00ADF810000C20ADF80E0001A92F
:1032B0004548FEF76EFE012240F225514248FEF7D6
:1032C00000FF01214048FEF7F0FEFFF7AAFF06B01D
:1032D00010BD10B540F225513B48FEF7D7FF00283E
:1032E00039D03948FEF752FFC4B2242C02D1002055
:1032F00033490880324801880088401C304A1080D9
:103300002E484454007824281ED12C4800794D289A
:103310001AD12A484079432816D10A2C14D15021B9
:103320002A4802F067FF264802882449274802F00D
:10333000E2FE0120254981F8500000202049088044
:10334000C8211E4802F056FF1D480088C82802DB2D
:10335000C8201B49088010BD10B5044621461748F7
:1033600002F098FE08B1012010BD0020FCE710B566
:103370000020164981F8500081F8510081F878004A
:103380005021124802F036FF1048523000210160EF
:103390004160018181720B30016041600181817265
:1033A0005D38A0F868106A300160416081606A3859
:1033B000A0F8761010BD000000480040D1090020A0
:1033C0006E04002000080140003801405809002028
:1033D0002DE9FF5F06460D4693460027A846A946FD
:1033E0002C46AA4606B125B94FF0FF3004B0BDE81F
:1033F000F09F00273EE0701CC05D112836D2DFE848
:1034000000F0090A0B35350C0D0E0F35353535102A
:103410001A2916002BE02AE029E028E027E026E020
:1034200025E099F800105CA002F0FCFC1FE05DA014
:1034300002F0F8FC1BE0A17962792379A068CDE95C
:103440000032CDE90210E378A27821885AA002F078
:10345000E9FC0CE063A002F0E5FC67A002F0E2FCEE
:103460009AF8001068A002F0DDFC00E000BF00BF89
:10347000781CC7B23078B842BDDC0020B6E7674898
:10348000006808B1012000E0002065490870654827
:10349000006808B1012000E00020614948706248DE
:1034A000006808B1012000E000205D4988705F4895
:1034B000006808B1012000E000205949C8705C484C
:1034C000006848605B48006888605B480068C860C6
:1034D0005A48006808615A480068486159480068BD
:1034E000886159480068C861704710B520214C4870
:1034F00002F080FE10BD55480068401C534908602A
:103500007047524800687047012080F3138800BF5D
:1035100000BF4F48006800F4E0604E490843001DBA
:103520004B490860BFF34F8F00BF00BFFEE700B5F7
:10353000FFF7E1FF00BD08B50020009001216846BB
:1035400000F08CF808BD70B505460E4600240DB994
:10355000601E70BD00241BE0295D3F48FEF712FE8F
:1035600000BF80213C48FEF77BFE0028F9D0022CEA
:103570000DD3285DFF280AD155213748FEF702FEFA
:1035800000BF80213448FEF76BFE0028F9D0641C90
:10359000B442E1D33046DCE7525353492025640A54
:1035A000000000005452414E53504152454E545F6A
:1035B00044415441200A0000574946495F4E545047
:1035C000203A205B25642D25642D2564202530328A
:1035D000643A253032643A253032645D5B25645D9F
:1035E000200A00004D4F44554C4520494E464F207F
:1035F0002E2E2E0A00000000574946204D4F4455FC
:103600004C45202E2E2E0A006D6F64756C65547922
:103610007065203A205B25645D200A002C040020A0
:10362000990A0020300400203404002038040020CF
:103630002804002020040020240400201C04002072
:10364000100400200C04002018040020780400203E
:103650000CED00E00000FA050048004070B504469B
:103660000D46002624B9EFA002F0DCFB701E70BDF1
:103670002A462146F34802F051FB0646AE4205D0E9
:10368000F1A002F0CFFB4FF0FF30F0E73046EEE75D
:1036900010B504462CB9F3A002F0C4FB4FF0FF3084
:1036A00010BD002020606060FF202070607000204E
:1036B000F6E770B504460D462CB9F5A002F0B2FB52
:1036C0004FF0FF3070BD2A21F74802F093FD2A46E3
:1036D0002146F548801C02F00EFDF3485138A0F851
:1036E0007550012180F85210FFF70BFFEE49513958
:1036F000C1F877000020E5E702460021002001B96B
:1037000007E001F007030BB9C80802E0012303EB4F
:10371000D10070470346002070472DE9F041044670
:103720000D460027002604B135B9E0A002F07AFB6F
:103730004FF0FF30BDE8F081FFF7E3FE0646287842
:10374000217888420ED0E3A002F06CFBD6485138B5
:1037500090F8C30020F00100401CD349513981F892
:10376000C30001276878617888420ED0E0A002F09B
:1037700059FBCD48513890F8C30020F00200801C5E
:10378000C949513981F8C3000127A878A178884236
:103790000ED0DEA002F046FBC348513890F8C300BB
:1037A00020F00400001DC049513981F8C3000127F1
:1037B000E878E17888420ED0DDA002F033FBBA4809
:1037C000513890F8C30020F008000830B64951394C
:1037D00081F8C300012768686168884215D0DD4818
:1037E0000068301A41F2707188420ED3DAA002F0FC
:1037F00019FBAD48513890F8C30020F0100010308C
:10380000A949513981F8C3000127A868A1688842F5
:1038100015D0D0480068301A41F2707188420ED33A
:10382000D2A002F0FFFAA048513890F8C30020F06F
:10383000200020309C49513981F8C3000127E868F5
:10384000E168884215D0C3480068301A41F27071AF
:1038500088420ED3CBA002F0E5FA9348513890F895
:10386000C30020F0400040308F49513981F8C30037
:10387000012728692169884215D0B6480068301AA6
:1038800041F2707188420ED3C4A002F0CBFA864890
:10389000513890F8C30020F08000803082495139BF
:1038A00081F8C30001276169686904F0F7FA15D04F
:1038B000A8480068301A41F2707188420ED3BDA04A
:1038C00002F0B0FA7848513890F8C40020F00100B6
:1038D000401C7549513981F8C4000127A169A869C4
:1038E00004F0DCFA15D09B480068301A41F2707180
:1038F00088420ED3B5A002F095FA6B48513890F883
:10390000C40020F00200801C6749513981F8C400CE
:103910000127E169E86904F0C1FA15D08D48006813
:10392000301A41F2707188420ED3ADA002F07AFADB
:103930005D48513890F8C40020F00400001D5A4939
:10394000513981F8C4000127012F03D1FFF7D9FDB8
:10395000804908603846EDE62DE9F04788B0054615
:103960000F4690464FF000090026002400200190E9
:103970000290039004904C485138B0F8C300ADF861
:103980000400022101A801F089FFA41C05B13FB980
:103990009AA002F047FA4FF0FF3008B0BDE8F08778
:1039A0004148513890F8C30000F0010038B12B783D
:1039B00001A802190121304601F0D5FF761C3A48D2
:1039C000513890F8C300C0F3400038B16B7801A8BB
:1039D00002190121304601F0C6FF761C32485138E9
:1039E00090F8C300C0F3800038B1AB7801A8021989
:1039F0000121304601F0B7FF761C2B48513890F872
:103A0000C300C0F3C00038B1EB7801A8021901214E
:103A1000304601F0A8FF761C16B94FF000090EE100
:103A200004E100004552523A2067697A50757444A7
:103A30006174612062756620697320656D707479A8
:103A4000200A00001E0C00204552523A20466169AF
:103A50006C656420746F2072625772697465200A05
:103A6000000000004552523A2067697A50726F7424
:103A70006F636F6C48656164496E69742068656145
:103A80006420697320656D707479200A000000005D
:103A90004552523A206461746120697320656D70EB
:103AA0007479200A000000000A0B002067697A433D
:103AB0006865636B5265706F7274204572726F72C5
:103AC000202C20496C6C6567616C20506172616DBF
:103AD0000A00000076616C75656C6F775F686561E0
:103AE000727473204368616E6765640A00000000A9
:103AF00076616C7565686967685F68656172747323
:103B0000204368616E6765640A00000076616C7529
:103B1000656C6F775F626C6F6F645F7072657373F3
:103B2000757265204368616E6765640A0000000075
:103B300076616C7565686967685F626C6F6F645FFA
:103B40007072657373757265204368616E67656432
:103B50000A0000007C04002076616C756573706F4C
:103B600032204368616E6765640A000076616C7597
:103B700065537973746F6C6963204368616E676520
:103B8000640A000076616C756544696173746F6CDA
:103B900065204368616E6765640A000076616C7534
:103BA00065686561727473204368616E6765640A55
:103BB0000000000076616C75656A696E6764752047
:103BC0004368616E6765640A0000000076616C7589
:103BD000657765696475204368616E6765640A008E
:103BE00076616C756574656D70657261747572650A
:103BF000204368616E6765640A00000067697A4463
:103C0000617461506F696E7473325265706F727453
:103C100044617461204572726F72202C20496C6C73
:103C20006567616C20506172616D0A0006F00700E3
:103C300010B94FEAD60902E0012000EBD609B9F12C
:103C4000010F04D901A90819494601F027FE4C4487
:103C5000F74890F8C300C0F3001060B16A68002113
:103C6000012001F034FEC0B28DF8150001A89DF8C6
:103C700015100155641CEE4890F8C300C0F34010C5
:103C800060B1AA680021012001F021FEC0B28DF8C8
:103C9000160001A89DF816100155641CE44890F820
:103CA000C300C0F3801060B1EA680021012001F078
:103CB0000EFEC0B28DF8170001A89DF8171001552F
:103CC000641CDB4890F8C300C00988B12A69002150
:103CD000012001F0FCFD1FFA80FA504601F025FC9E
:103CE000ADF8180001A82044BDF818100180A41CEC
:103CF000CF4890F8C40000F0010088B16A69CD494E
:103D0000CD4801F0F1FD1FFA80FA504601F00DFC9C
:103D1000ADF81A0001A82044BDF81A100180A41CB7
:103D2000C34890F8C400C0F3400088B1AA69C349F1
:103D3000C14801F0D9FD1FFA80FA504601F0F5FBA9
:103D4000ADF81C0001A82044BDF81C100180A41C83
:103D5000B74890F8C400C0F3800088B1EA69002138
:103D6000B74801F0C1FD1FFA80FA504601F0DDFBB3
:103D7000ADF81E0001A82044BDF81E100180A41C4F
:103D8000AB480021A0F8C310C8F8004001A938468C
:103D9000D8F8002002F0AFF90020FEE52DE9F04749
:103DA00080460C4617461D46089E94F800900CB1BC
:103DB00005B136B9A3A002F035F84FF0FF30BDE8E9
:103DC000F087B8F1000F57D1122199487B3002F0EB
:103DD00011FAB9F1050F30D0B9F1110F03D0B9F1D3
:103DE000120F47D103E000250020306043E0A1A07E
:103DF00002F018F88E48B4F80110A0F8C3100221A0
:103E0000C33001F04BFD8A4AD332A2F10E0101F119
:103E10003200FFF7A1FD60B98548D0F8D32000F14A
:103E2000C501681C02F067F9132028700F2030606C
:103E300002E04FF0FF30C2E71DE07A1E611C7C48B3
:103E4000233002F058F9781E7949C1F84500102155
:103E5000774890F87B207C3081547C3890F87B0048
:103E6000401C734981F87B00032008700025002066
:103E7000306000E000BF00BF0020A0E72DE9F04F58
:103E800093B006468B46174699460020129082460C
:103E90008046002501ACBBF1000F06D17EA001F0E9
:103EA000C1FF681E13B0BDE8F08FB9F1010F06D154
:103EB00096F8088008F10600384485B201E0781DC4
:103EC00085B22B464246394679A001F0ABFFFF2070
:103ED00004F8010B04F8010B281204F8010B04F894
:103EE000015B3079401C04F8010B707904F8010B78
:103EF000002004F8010B04F8019B4FF0080AB9F107
:103F0000010F0DD104F8018B0AF1010A01A901EB9F
:103F10000A00424606F1090102F0EDF8C2444444A9
:103F200037B101A901EB0A003A46594602F0E3F81D
:103F3000291D01A801F0E6FA0146E81C01AA115466
:103F4000291D01A8FFF7FFFA12901298002806DA3F
:103F500061A0129901F066FF6FF00100A2E7002056
:103F6000A0E72DE9F04389B006460F4690464FF092
:103F700000096C4608F1060085B23FB95CA001F06B
:103F800051FF4FF0FF3009B0BDE8F083FF2004F887
:103F9000010B04F8010B281204F8010B04F8015B73
:103FA000052004F8010B224890F84910D0F8490088
:103FB000401C1F4AC2F8490004F8011B002004F805
:103FC000010B04F8010B04F8016B424639460DF170
:103FD000090002F090F8291D684601F093FA0146A5
:103FE000E81C0DF80010291D6846FFF7ACFA814661
:103FF000B9F1000F06DA494647A001F013FF6FF050
:104000000100C0E7291D6846FFF753FB0020BAE70F
:1040100070B50546FFF775FA044600260449F731E6
:104020002846FFF77AFB012800D183E09BE00000DF
:10403000B90A0020F6A892420AD7233CD7A36040D1
:10404000CDCCCC3D67697A50726F746F636F6C49E9
:10405000737375656450726F636573732045727214
:104060006F72202C20496C6C6567616C2050617206
:10407000616D0A00414354494F4E5F454C4F4E47D6
:104080004154455F524541445F4445565F53544156
:10409000545553200A0000005B4552525D202064B5
:1040A000617461204973204E756C6C200A00000019
:1040B0006C656E203D202564202C20734469644C7F
:1040C000656E203D202564202C646174615F6C6501
:1040D0006E203D2025640A00756172742077726934
:1040E0007465206572726F72202564200A000000DA
:1040F00067697A5265706F727444617461204572A9
:10410000726F72202C20496C6C6567616C20506165
:1041100072616D0A000000004552523A20756172CA
:1041200074207772697465206572726F72202564DD
:10413000200A0000F8A001F075FEFD4AA2F10E0170
:104140002846FFF709FC40B9F948D338D0F8D32006
:1041500000F1C5011420FFF704FF20222946F4488E
:10416000243001F0C8FFF348B4FBF0F100FB11402C
:1041700020BBF1480068A04220D0F0A001F052FE20
:10418000FF220221EA48103802F02CF8E84AA2F196
:104190000E012846FFF7E0FB40B9E548D338D0F8D8
:1041A000D32000F1C5011420FFF7DBFE20222946B1
:1041B000DF48243001F09FFFDF480460304601F003
:1041C000FBFD70BD2DE9FE4F80460E4617464FF0B1
:1041D000000B002002908146824600253446009064
:1041E000B8F1000F01D006B137B9DAA001F01AFE1C
:1041F0004FF0FF30BDE8FE8F404601F013FD00F0A8
:10420000FF0ABAF1000F02D14FF0FF30F2E74FF092
:1042100000095DE0012201A9404601F02EFD834620
:10422000BBF1000F52D0D7480078FF281FD19DF86E
:104230000400FF281BD1D448007848B9FF20207023
:1042400060700220D14908800120CF49087034E015
:10425000CE480088042830DDCC480088A8422CD005
:10426000FF20207060700220C849088025E0C54802
:104270000078FF2803D19DF8040055281DD0C248BE
:104280000078012819D19DF80400C04909886054BC
:10429000BE480088401CBD490880084600880428A4
:1042A0000BDD0094009C608801F03FF9001D85B291
:1042B000B6480088A84200D10CE09DF80400B1493E
:1042C0000870B3480078401CB149087009F1010931
:1042D000D1459FDB00BFAD480088042823DDAB48F3
:1042E0000088A8421FD1A9480188204601F00AF998
:1042F0000290A6480088401E215C029881420FD19E
:104300002A462146304601F0F6FE3D8000209E49B7
:1043100008709E4908809E4908709A49087069E7AC
:104320006FF0010066E7012064E710B500248048C3
:10433000D33890F8520000B910BD96A001F072FD7C
:104340007B48D338B0F875105330FFF7FCF80446BB
:104350007748D338B0F87500A04202D095A001F09C
:1043600061FDFFF7CEF87249D339C1F8770000BF7D
:10437000E2E770B504466E4D803D34B9AFF6F0000B
:1043800001F050FD4FF0FF3070BD2879401C2179BD
:10439000884204D12A216648823801F02BFF002090
:1043A000F2E73EB50446002524B988A001F03AFDA5
:1043B000681E3EBD20680090606801909DF8040072
:1043C000401CC0B28DF80400052001F0AEF8ADF835
:1043D00002000921684601F095F88DF808000921CE
:1043E0006846FFF7B0F80546002D04DA2946AFF21B
:1043F000D82001F017FD2846DBE710B54C48D3382C
:1044000090F8520001282CD14948D33890F8510037
:10441000022821DAFFF775F84549D339D1F877102A
:10442000401AC8281DD9FFF76CF804464048D33815
:1044300090F85130D0F8772021466FA001F0F2FCBF
:10444000FFF773FF3A48D33890F85100401C3849C1
:10445000D33981F8510004E02A213548823801F02F
:10446000C9FE10BD30B59DB0044600252CB96CA026
:1044700001F0D8FC681E1DB030BD6846FFF708F992
:1044800002208DF8040060798DF8050070A103C941
:10449000CDE9020171A103C9CDE9040172A103C9EB
:1044A000CDE9080173A103C9CDE90601202274A159
:1044B0000AA801F065FE20227AA10DF1520001F058
:1044C0001AFE0020CDF84A00CDF84E009DF85100AC
:1044D0008DF851009DF8510040F002018DF8511007
:1044E000002001F022F8ADF848006F2001F01DF81F
:1044F000ADF802007321684601F004F88DF87200EF
:1045000073216846FFF71FF80546002D03DA294698
:10451000AFF2FC30D8E0D9E06368616E6765642C67
:10452000207265706F727420646174610A0000000B
:104530008C0B0020C027090080040020496E666FA4
:104540003A2036303053207265706F727420646187
:1045500074610A0067697A50726F746F636F6C4799
:1045600065744F6E655061636B6574204572726F40
:1045700072202C20496C6C6567616C2050617261FF
:104580006D0A0000880400208404002086040020B6
:10459000890400205761726E696E673A2074696DF4
:1045A000656F75742C20726573656E642064617428
:1045B00061200A004552523A20726573656E64208C
:1045C00064617461206572726F720A004552523ADA
:1045D0002067697A50726F746F636F6C436F6D6D93
:1045E0006F6E41636B206461746120697320656D37
:1045F000707479200A0000005761726E696E673A24
:1046000067697A50726F746F636F6C526573656E11
:1046100064446174612025642025642025640A00B7
:1046200067697A50726F746F636F6C476574446525
:1046300076696365496E666F204572726F72202CD1
:1046400020496C6C6567616C20506172616D0A0075
:104650003030303030303034000000003030303016
:104660003030303200000000303330333030303002
:1046700000000000303330313031303000000000B5
:10468000363133343962613963303036346636302E
:10469000626239643038376331633163313765665C
:1046A0000000000064303562306562623635633187
:1046B000346563323862346565323334356665306B
:1046C000323832620000000001F0ACFB2846D2E62E
:1046D000FEB504460E46002524B9FEA001F0A2FB5B
:1046E000681EFEBD6846FEF7D3FF12208DF8040059
:1046F00060798DF80500062000F017FFADF8020084
:104700008DF808600A21684600F0FCFE8DF809006B
:104710000A216846FEF717FF0546002D04DA2946F0
:10472000AFF20C6001F07EFB2846DAE770B5044674
:1047300025462CB9F2A001F075FB4FF0FF3070BD9B
:10474000F448A9688161E968C161298A0184A97C6A
:1047500080F82210A0F58071B1F8180100F0E5FE94
:10476000ED49A1F81801D1F8200100F0EBFEEA496B
:10477000C1F820010E21E84890F89F20A030815414
:10478000A03890F89F00401CE34981F89F00042066
:1047900008700020D3E710B5FEF7B3FE044600BF53
:1047A000FEF7AFFE001BB0F5167FF9D9FEF7ACFEA1
:1047B00010BD10B504462CB9D8A001F033FB4FF062
:1047C000FF3010BD208900F0B0FE2081DF48007866
:1047D000C0F38000217AC1F38001884256D0207A4C
:1047E000C0F38000002829D0207A00F0010078B1C1
:1047F0000021C94890F88D208E3081548E3890F871
:104800008D00401CC44981F88D00D1A001F00AFB45
:10481000207AC0F34000002838D00121BE4890F82B
:104820008D208E3081548E3890F88D00401CBA490E
:1048300081F88D00CEA001F0F5FA27E0207A00F093
:10484000010078B10021B44890F88D208E30815459
:104850008E3890F88D00401CAF4981F88D00BCA0C7
:1048600001F0E0FA207AC0F3400078B10221AA48B2
:1048700090F88D208E3081548E3890F88D00401C39
:10488000A54981F88D00C1A001F0CCFAAF480078AD
:10489000C0F3C000217AC1F3C00188422CD0207A35
:1048A000C108AA48007861F3C300A8490870207ABB
:1048B000C0F3C00080B10321974890F88D208E305E
:1048C00081548E3890F88D00401C934981F88D00FA
:1048D000B5A001F0A7FA0FE004218F4890F88D20D1
:1048E0008E3081548E3890F88D00401C8A4981F8B2
:1048F0008D00B5A001F096FA94480078C0F300103E
:10490000217AC1F3001188422CD0207A01098F4806
:10491000007861F304108D490870207AC0F300100C
:1049200080B105217C4890F88D208E3081548E38DE
:1049300090F88D00401C784981F88D00AAA001F004
:1049400071FA0FE00621744890F88D208E30815462
:104950008E3890F88D00401C6F4981F88D00AAA018
:1049600001F060FA79480078C0F34010217AC1F371
:10497000401188422CD0207A41097448007861F3B4
:10498000451072490870207AC0F3401080B10721A9
:10499000614890F88D208E3081548E3890F88D00CB
:1049A000401C5D4981F88D00A0A001F03BFA0FE0AA
:1049B0000821594890F88D208E3081548E3890F817
:1049C0008D00401C544981F88D009FA001F02AFA07
:1049D0005E484078C0F3C001607AC0F3C0008142F5
:1049E0002CD0607AC1085948407861F3C300574918
:1049F0004870607AC0F3C00080B10B21464890F83F
:104A00008D208E3081548E3890F88D00401C4249A4
:104A100081F88D0094A001F005FA0FE00C213E48CA
:104A200090F88D208E3081548E3890F88D00401C87
:104A3000394981F88D0093A001F0F4F9434840789A
:104A4000C0F30011607AC0F3001081422CD0607A6C
:104A500001093E48407861F304103C494870607A8F
:104A6000C0F3001080B109212B4890F88D208E30C2
:104A700081548E3890F88D00401C274981F88D00B4
:104A800088A001F0CFF90FE00A21234890F88D208B
:104A90008E3081548E3890F88D00401C1E4981F86C
:104AA0008D0087A001F0BEF90D211B4890F88D20E4
:104AB0008E3081548E3890F88D00401C164981F854
:104AC0008D00607A00F0070081F81701084690F821
:104AD000171103E167697A50726F746F636F6C45E9
:104AE00072726F72436D64204572726F72202C2057
:104AF000496C6C6567616C20506172616D0A0000E1
:104B00004552523A204E545020697320656D70749E
:104B100079200A00B90B0020B90A002067697A5091
:104B2000726F746F636F6C4D6F64756C65537461F5
:104B3000747573204572726F72202C20496C6C65FD
:104B400067616C20506172616D0A00008A04002068
:104B50004F6E426F617264696E673A20536F66747C
:104B60004150206F7220576562206D6F64650A00A6
:104B70004F6E426F617264696E673A204169724C90
:104B8000696E6B206D6F64650A0000004F6E426FA6
:104B9000617264696E673A2053746174696F6E2044
:104BA0006D6F64650A00000057694669207374617F
:104BB0007475733A20696E2062696E64696E67204D
:104BC0006D6F64650A00000057694669207374615F
:104BD0007475733A206F75742062696E64696E67CC
:104BE000206D6F64650A000057694669207374611F
:104BF0007475733A20636F6E6E65637465642072BA
:104C00006F757465720A0000576946692073746194
:104C10007475733A20646973636F6E6E656374654F
:104C20006420726F757465720A00000057694669E6
:104C3000207374617475733A20636F6E6E6563746C
:104C40006564206D326D0A0057694669207374618E
:104C50007475733A20646973636F6E6E656374650F
:104C600064206D326D0A00005769466920737461D3
:104C70007475733A2061707020636F6E6E65637433
:104C80000A00000057694669207374617475733AAD
:104C9000206E6F2061707020636F6E6E6563740AA2
:104CA0000000000057694669207374617475733A97
:104CB00020696E2074657374206D6F64650A00004E
:104CC00057694669207374617475733A206F7574FF
:104CD0002074657374206D6F64650A00FCA001F098
:104CE000A1F80220FE49087000206AE510B54420B2
:104CF000FC490860FC48C860084600F075FF18B918
:104D0000FAA001F08FF802E0FDA001F08BF840F26C
:104D10006511F34801F06EFA10BD30B587B0054655
:104D20000024062D7ED2DFE805F003316193C1F047
:104D300001A8FEF7ADFC0B208DF80800E84890F8BC
:104D40004910D0F84900401CE54AC2F84900C8B2F1
:104D50008DF80900052000F0E8FBADF806000921F8
:104D600001A800F0CFFB8DF80C00092101A8FEF787
:104D7000EAFB0446002C04DA2146AFF6644001F059
:104D800051F8092101A8FEF794FCF0E004A8FEF711
:104D90007FFC09208DF81400D14890F84910D0F814
:104DA0004900401CCE4AC2F84900C8B28DF815002F
:104DB0008DF81850062000F0B8FBADF812000A215B
:104DC00004A800F09FFB8DF819000A2104A8FEF743
:104DD000BAFB0446002C04DA2146AFF6C44001F0C9
:104DE00021F80A2104A8FEF764FCC0E004A8FEF73D
:104DF0004FFC09208DF81400B94890F84910D0F8FC
:104E00004900401CB64AC2F84900C8B28DF81500E6
:104E10008DF81850062000F088FBADF812000A212A
:104E200004A800E09FE000F06DFB8DF819000A2156
:104E300004A8FEF788FB0446002C04DA2146AFF6EE
:104E4000285000F0EFFF0A2104A8FEF732FC8EE0A4
:104E500001A8FEF71DFC13208DF80800A04890F86B
:104E60004910D0F84900401C9D4AC2F84900C8B218
:104E70008DF80900052000F058FBADF80600092167
:104E800001A800F03FFB8DF80C00092101A8FEF7F6
:104E90005AFB0446002C04DA2146AFF6845000F099
:104EA000C1FF092101A8FEF704FC60E001A8FEF79C
:104EB000EFFB15208DF80800894890F84910D0F8CC
:104EC0004900401C864AC2F84900C8B28DF8090062
:104ED000052000F02AFBADF80600092101A800F02A
:104EE00011FB8DF80C00092101A8FEF72CFB0446EC
:104EF000002C04DA2146AFF6E05000F093FF0921C0
:104F000001A8FEF7D6FB32E0FFE701A8FEF7C0FBE1
:104F100029208DF80800724890F84910D0F849000F
:104F2000401C6F4AC2F84900C8B28DF8090005203C
:104F300000F0FBFAADF80600092101A800F0E2FA42
:104F40008DF80C00092101A8FEF7FDFA0446002C9B
:104F500004DA2146AFF6406000F064FF092101A8A1
:104F6000FEF7A7FB03E06BA000F05CFF00BF00BFF3
:104F7000204607B030BD3EB500246846FEF788FBEA
:104F800017208DF80400564890F84910D0F84900D1
:104F9000401C534AC2F84900C8B28DF805000520EC
:104FA00000F0C3FAADF802000921684600F0AAFA41
:104FB0008DF8080009216846FEF7C5FA0446002C62
:104FC00003DA214659A000F02DFF09216846FEF7BB
:104FD00070FB3EBD3EB500246846FEF759FB21201C
:104FE0008DF804003E4890F84910D0F84900401C64
:104FF0003B4AC2F84900C8B28DF8050000208DF880
:105000000800062000F091FAADF802000A21684677
:1050100000F078FA8DF809000A216846FEF793FA45
:105020000446002C03DA214640A000F0FBFE0A21D2
:105030006846FEF73EFB3EBD70B5044625462CB9DA
:1050400042A000F0EFFE4FF0FF3070BD412205F1AD
:105050000801424801F04FF80F21214890F8B12093
:10506000B2308154B23890F8B100401C1C4981F82C
:10507000B100052008700020E7E72DE9F04194B069
:10508000054600260020029001900024804600275B
:1050900035B933A000F0C6FE601E14B0BDE8F08143
:1050A000FFF7ABF902AA0E49491C0E48FFF78AF830
:1050B0000646002E0BD134A000F0B4FE084C641C50
:1050C00020790F286AD075DC0E2869D269E0E2E009
:1050D00052535349206973202564200A00000000C0
:1050E000B90A00201E0C00202E0C002072624372B0
:1050F000656174652053756363657373200A0000EE
:105100007262437265617465204661696C64200A4D
:10511000000000004552523A204366674D6F6465B7
:10512000206572726F72210A000000004552525BC6
:105130004E54505D3A2075617274207772697465BF
:10514000206572726F72202564200A004E54502030
:10515000697320656D707479200A0000DD0B0020F2
:1051600047697A7769747348616E646C652045722B
:10517000726F72202C20496C6C6567616C205061E5
:1051800072616D0A00000000476574204F6E652053
:105190005061636B6574210A000000004DE009E076
:1051A00070E0DFE800F06F166F1A6F6F42376F6FB5
:1051B000436F443B182851D006DC112846D01428F0
:1051C00045D016285ED133E0222851D02A2859D163
:1051D0002FE02046FFF746F95CE0E279A17990A044
:1051E00000F020FE01A8009007F10900BDF808308A
:1051F0001A1A8F48C11903AB4046FEF7CFFD40B9DC
:10520000E37903A92046019AFEF738FE89A000F051
:1052100009FE3FE02046FFF7C4F83BE02046FFF7D9
:10522000C0F82046FFF7C5FA34E000BF00BF00BF5A
:1052300000BF2046FFF79DF82CE02046FFF7B1F8AD
:105240007FA000F0EFFDFFF7A6FA23E022E0204662
:10525000FFF78FF87FA000F0E5FD1BE02046FFF789
:1052600088F82046FFF762FA82A000F0DBFD11E02B
:105270002046FFF77EF82046FFF7DEFE83A000F011
:10528000D1FD07E002212046FFF722FA86A000F0B8
:10529000C9FD00BF0EE016F1020F0BD1644C083CB3
:1052A00001212046FFF714FA85A000F0BBFD6FF046
:1052B0000100F2E65E4809380078062853D2DFE89C
:1052C00000F0520313243041002059490939087075
:1052D0002022D731A1F15C00FEF77AF81221544860
:1052E000723000F087FF3FE0002051490939087013
:1052F000012201F21711A1F18A00FEF769F81221CB
:105300004B48843000F076FF2EE0002048490939F0
:1053100008700846D0F8452023317B30FEF758F856
:1053200022E000204249093908700C2201F58C71F5
:10533000A1F17900FEF74CF812213D48963000F0BB
:1053400059FF11E000203A4909390870412201F55E
:105350009271A1F17300FEF73BF841213448A83067
:1053600000F048FF00E000BF00BF2846FEF750FEF7
:10537000002092E62DE9F0418AB006460F464FF034
:10538000000801ACB81D85B23EB953A000F04AFD3B
:105390004FF0FF300AB0BDE8F081FF2004F8010BA8
:1053A00004F8010B281204F8010B04F8015B052036
:1053B00004F8010B1E48093890F84910D0F849004C
:1053C000401C1B4A093AC2F8490004F8011B00209E
:1053D00004F8010B04F8010B062004F8010B3A460F
:1053E00031460DF10D0000F086FE291D01A800F0E8
:1053F00089F80146E81C01AA1154291D01A8FEF7ED
:10540000A2F88046B8F1000F03DA41463C4800F0AC
:1054100009FD291D01A8FEF74CF90020BAE700009C
:10542000666C6167202578202578200A000000003E
:10543000C20A002041636B44617461203A200A0073
:105440007265706F72743A4D4355207265626F6F6A
:1054500074210A0041636B2050524F445543544914
:105460004F4E5F4D4F4445207375636365737320E2
:105470000A00000041636B204745545F5554542097
:1054800073756363657373200A00000041636B20CA
:105490004745545F4D6F64756C6520737563636534
:1054A0007373200A000000004552523A20636D6475
:1054B00020636F6465206572726F72210A000000BC
:1054C0004552523A20636865636B2073756D2065A1
:1054D00072726F72210A00005B4552525D2067694B
:1054E0007A77697473506173737468726F756768E3
:1054F00044617461204572726F72200A00000000DE
:105500001841000810B502460024002302B109B971
:10551000002010BD022303E0D05C2044C4B25B1C19
:10552000481E9842F8D82046F3E701B581B0002024
:105530000090694601AA5078087010784870BDF84C
:1055400000000CBD0146080601F47F4240EA02203B
:1055500001F47F0240EA122040EA1160704710B562
:1055600002460024302A05DB392A03DCA2F1300090
:10557000C3B20EE0412A05DB462A03DCA2F1370064
:10558000C3B206E0612A04DB662A02DCA2F15700FE
:10559000C3B2302905DB392903DCA1F13000C4B2E4
:1055A0000EE0412905DB462903DCA1F13700C4B236
:1055B00006E0612904DB662902DCA1F15700C4B2D0
:1055C00004EB0310C0B210BD70B5044600250026E0
:1055D000204600F071FD06460CB9681E70BD00251E
:1055E00005E0605D302801D00020F7E76D1CB54272
:1055F000F7D30120F2E72DE9F043034600BF002571
:10560000002400260027012901D002290DD1A3F191
:10561000010C4FF06408BCFBF8F4BCFBF8F908FB84
:1056200019C501F10C06174609E04FF0640CB3FBF5
:10563000FCF4B3FBFCF80CFB18350E46174606F1DC
:10564000010C4FF01A080CFB08FC4FF00A08BCFBD9
:10565000F8FC05EB950808EB94084FF0020909FBEC
:105660001488C444BC44ACF10100002806DB4FF0B0
:10567000070C90FBFCF80CFB180C07E04FF0070C34
:1056800090FBFCF80CFB180C0CF1070C6046BDE815
:10569000F08301460A46C81701EB90708010A1EB19
:1056A000800070B9642091FBF0F300FB131030B957
:1056B0004FF4C87091FBF0F300FB131008B9012000
:1056C00070470020FCE710B504462046FFF7E1FFD5
:1056D00010B14FF4B77010BD40F26D10FBE72DE92B
:1056E000F04190B080460E4640F2B27530226949D2
:1056F00001A800F045FD344604F5E14400BF11E087
:105700002846FFF7E0FF074640F2A3207843B4EBBA
:10571000C01F06D340F2A3207843A4EBC0146D1C35
:1057200000E001E0002CEBD100BFA8B2ADF83400DE
:10573000002518E0BDF83400FFF7ABFF08B11D20CD
:10574000029001A850F8250040F2A3214843B4EB91
:10575000C01F07D301A850F825004843A4EBC0148C
:105760006D1C00E001E0002CE4D100BF1C20029081
:10577000681CC0B28DF83600012506E04648844218
:1057800002D3241A6D1C00E001E0002CF6D100BF0A
:10579000E8B28DF837004FF46160B4FBF0F0C0B2AE
:1057A0008DF838004FF46160B4FBF0F100FB11405C
:1057B0003C21B0FBF1F0C0B28DF839003C20B4FBC5
:1057C000F0F100FB11408DF83A00CDF83B600D98E8
:1057D000C8F800000E98C8F80400BDF83C00A8F80E
:1057E00008009DF83E0088F80A0010B0BDE8F0817E
:1057F0002DE9F05F80460E46914600241CE016F825
:1058000014A06000401C16F800B0504600F0FBFAEF
:105810003038C5B2092D01DDE81FC5B2584600F089
:10582000F2FA3038C7B2092F01DDF81FC7B207EB13
:10583000051008F80400641C4C45E0DBBDE8F09F4F
:10584000F0B5034600201EE00E5CF71706EB177755
:105850003F1107F130050E5CF71706EB17773F1184
:10586000A6EB07173037FCB2392D01DDEE1DF5B27E
:10587000392C01DDE61DF4B203F81050012606EBC9
:1058800040069C55401C9042DEDB002603F8126067
:10589000F0BD000040A100088051010030B5024673
:1058A0000B460021002400250AB9481E30BD002106
:1058B00008E0545C581A401E155C5554581A401E96
:1058C0001454491CB1EB530FF3D30020EEE710B58D
:1058D00003460020541AB4FBF3F010BD10B5034684
:1058E000002002FB031010BD2DE9F04704460E46D0
:1058F000154600273146284602F01CFC8146214609
:1059000002F00AFA804602F0FDFA07463846BDE882
:10591000F0872DE9F04704460E4615460027284635
:1059200002F028FB8146214602F038FB80463146D2
:1059300002F084F907463846BDE8F087024612B106
:1059400002F0070028B9082901D80020704701207B
:10595000FCE702F00700C0F10800884201D30020F4
:10596000F4E70120F2E72DE9F047054688461446A2
:105970001E464FF00009CA460027002314B9581EDE
:10598000BDE8F087EB0841462846FFF7D7FF0746FA
:105990003FB9E05C05F0070106FA01F10843E05465
:1059A0001DE0012F1BD1F0B205F00701C1F1080184
:1059B00040FA01F905F00700C0F10801FF20084195
:1059C00000EA060A581C205C40EA0900591C605491
:1059D000E05C05F007010AFA01F10843E0540020F9
:1059E000CEE72DE9F04F8FB004460F4690461D4696
:1059F0000026B246B146B34600200E90B8F1000F23
:105A000000D025B94FF0FF300FB0BDE8F08F4FEA5E
:105A1000D4092A46414601A800F06DFB012D09D9A1
:105A2000294601A8FFF73AFFB0F1FF3F02D14FF03E
:105A3000FF30E9E739462046FFF780FF8246BAF19A
:105A4000000F0CD101A810F8090004F0070108416B
:105A5000C7F10802FF2111410840064321E0BAF1D5
:105A6000010F1ED101A909F10100085C04F0070132
:105A7000C1F10801791AC1F10802FF21114100EAC0
:105A8000010B01A810F8090004F0070108410E906D
:105A900004F00700C0F108010BFA01F006430E986C
:105AA00006433046B0E72DE9F04F8FB005460C466F
:105AB00016469946189F4FF0000AD34600200E90D4
:105AC0008046B9F1000F00D027B94FF0FF300FB07A
:105AD000BDE8F08F3A46494601A800F00CFB012FC3
